{
  "_format": "hh3-artifact-1",
  "contractName": "SimplePaymaster",
  "sourceName": "contracts/Paymaster.sol",
  "abi": [
    {
      "inputs": [
        {
          "internalType": "address",
          "name": "_owner",
          "type": "address"
        },
        {
          "internalType": "address",
          "name": "_entryPoint",
          "type": "address"
        }
      ],
      "stateMutability": "nonpayable",
      "type": "constructor"
    },
    {
      "inputs": [
        {
          "internalType": "address",
          "name": "",
          "type": "address"
        }
      ],
      "name": "allowedTargets",
      "outputs": [
        {
          "internalType": "bool",
          "name": "",
          "type": "bool"
        }
      ],
      "stateMutability": "view",
      "type": "function"
    },
    {
      "inputs": [],
      "name": "deposit",
      "outputs": [],
      "stateMutability": "payable",
      "type": "function"
    },
    {
      "inputs": [],
      "name": "entryPoint",
      "outputs": [
        {
          "internalType": "contract IEntryPoint",
          "name": "",
          "type": "address"
        }
      ],
      "stateMutability": "view",
      "type": "function"
    },
    {
      "inputs": [
        {
          "internalType": "address",
          "name": "target",
          "type": "address"
        }
      ],
      "name": "isAllowed",
      "outputs": [
        {
          "internalType": "bool",
          "name": "",
          "type": "bool"
        }
      ],
      "stateMutability": "view",
      "type": "function"
    },
    {
      "inputs": [],
      "name": "owner",
      "outputs": [
        {
          "internalType": "address",
          "name": "",
          "type": "address"
        }
      ],
      "stateMutability": "view",
      "type": "function"
    },
    {
      "inputs": [
        {
          "internalType": "address",
          "name": "target",
          "type": "address"
        },
        {
          "internalType": "bool",
          "name": "allowed",
          "type": "bool"
        }
      ],
      "name": "setAllowedTarget",
      "outputs": [],
      "stateMutability": "nonpayable",
      "type": "function"
    },
    {
      "inputs": [
        {
          "internalType": "uint256",
          "name": "amount",
          "type": "uint256"
        }
      ],
      "name": "withdraw",
      "outputs": [],
      "stateMutability": "nonpayable",
      "type": "function"
    },
    {
      "stateMutability": "payable",
      "type": "receive"
    }
  ],
  "bytecode": "0x6080604052348015600e575f5ffd5b5060405161047b38038061047b833981016040819052602b916074565b5f80546001600160a01b039384166001600160a01b0319918216179091556001805492909316911617905560a0565b80516001600160a01b0381168114606f575f5ffd5b919050565b5f5f604083850312156084575f5ffd5b608b83605a565b9150609760208401605a565b90509250929050565b6103ce806100ad5f395ff3fe608060405260043610610071575f3560e01c8063b8fe8d5f1161004c578063b8fe8d5f146100f7578063babcc53914610135578063ca1dd22e1461016c578063d0e30db01461018b575f5ffd5b80632e1a7d4d1461007c5780638da5cb5b1461009d578063b0d691fe146100d8575f5ffd5b3661007857005b5f5ffd5b348015610087575f5ffd5b5061009b6100963660046102ea565b610193565b005b3480156100a8575f5ffd5b505f546100bb906001600160a01b031681565b6040516001600160a01b0390911681526020015b60405180910390f35b3480156100e3575f5ffd5b506001546100bb906001600160a01b031681565b348015610102575f5ffd5b5061012561011136600461031c565b60026020525f908152604090205460ff1681565b60405190151581526020016100cf565b348015610140575f5ffd5b5061012561014f36600461031c565b6001600160a01b03165f9081526002602052604090205460ff1690565b348015610177575f5ffd5b5061009b61018636600461033c565b61022a565b61009b61027d565b5f546001600160a01b031633146101c55760405162461bcd60e51b81526004016101bc90610375565b60405180910390fd5b6001545f5460405163040b850f60e31b81526001600160a01b0391821660048201526024810184905291169063205c2878906044015f604051808303815f87803b158015610211575f5ffd5b505af1158015610223573d5f5f3e3d5ffd5b5050505050565b5f546001600160a01b031633146102535760405162461bcd60e51b81526004016101bc90610375565b6001600160a01b03919091165f908152600260205260409020805460ff1916911515919091179055565b5f546001600160a01b031633146102a65760405162461bcd60e51b81526004016101bc90610375565b60015460405163b760faf960e01b81523060048201526001600160a01b039091169063b760faf99034906024015f604051808303818588803b158015610211575f5ffd5b5f602082840312156102fa575f5ffd5b5035919050565b80356001600160a01b0381168114610317575f5ffd5b919050565b5f6020828403121561032c575f5ffd5b61033582610301565b9392505050565b5f5f6040838503121561034d575f5ffd5b61035683610301565b91506020830135801515811461036a575f5ffd5b809150509250929050565b6020808252600990820152682737ba1037bbb732b960b91b60408201526060019056fea2646970667358221220059b7da1c4214f9957e79da480a836308695a2949e90eeb5f869ddb98d41ac8a64736f6c634300081c0033",
  "linkReferences": {},
  "deployedLinkReferences": {},
  "immutableReferences": {},
  "inputSourceName": "project/contracts/Paymaster.sol",
  "buildInfoId": "solc-0_8_28-d7607c2aa8b6e8b981e04d7c35ab775c5fbb3446"
}