{
  "_format": "hh3-artifact-1",
  "contractName": "RewardToken",
  "sourceName": "contracts/RewardToken.sol",
  "abi": [
    {
      "inputs": [
        {
          "internalType": "string",
          "name": "name_",
          "type": "string"
        },
        {
          "internalType": "string",
          "name": "symbol_",
          "type": "string"
        },
        {
          "internalType": "address",
          "name": "initialOwner",
          "type": "address"
        }
      ],
      "stateMutability": "nonpayable",
      "type": "constructor"
    },
    {
      "inputs": [
        {
          "internalType": "address",
          "name": "spender",
          "type": "address"
        },
        {
          "internalType": "uint256",
          "name": "allowance",
          "type": "uint256"
        },
        {
          "internalType": "uint256",
          "name": "needed",
          "type": "uint256"
        }
      ],
      "name": "ERC20InsufficientAllowance",
      "type": "error"
    },
    {
      "inputs": [
        {
          "internalType": "address",
          "name": "sender",
          "type": "address"
        },
        {
          "internalType": "uint256",
          "name": "balance",
          "type": "uint256"
        },
        {
          "internalType": "uint256",
          "name": "needed",
          "type": "uint256"
        }
      ],
      "name": "ERC20InsufficientBalance",
      "type": "error"
    },
    {
      "inputs": [
        {
          "internalType": "address",
          "name": "approver",
          "type": "address"
        }
      ],
      "name": "ERC20InvalidApprover",
      "type": "error"
    },
    {
      "inputs": [
        {
          "internalType": "address",
          "name": "receiver",
          "type": "address"
        }
      ],
      "name": "ERC20InvalidReceiver",
      "type": "error"
    },
    {
      "inputs": [
        {
          "internalType": "address",
          "name": "sender",
          "type": "address"
        }
      ],
      "name": "ERC20InvalidSender",
      "type": "error"
    },
    {
      "inputs": [
        {
          "internalType": "address",
          "name": "spender",
          "type": "address"
        }
      ],
      "name": "ERC20InvalidSpender",
      "type": "error"
    },
    {
      "inputs": [
        {
          "internalType": "address",
          "name": "owner",
          "type": "address"
        }
      ],
      "name": "OwnableInvalidOwner",
      "type": "error"
    },
    {
      "inputs": [
        {
          "internalType": "address",
          "name": "account",
          "type": "address"
        }
      ],
      "name": "OwnableUnauthorizedAccount",
      "type": "error"
    },
    {
      "anonymous": false,
      "inputs": [
        {
          "indexed": true,
          "internalType": "address",
          "name": "owner",
          "type": "address"
        },
        {
          "indexed": true,
          "internalType": "address",
          "name": "spender",
          "type": "address"
        },
        {
          "indexed": false,
          "internalType": "uint256",
          "name": "value",
          "type": "uint256"
        }
      ],
      "name": "Approval",
      "type": "event"
    },
    {
      "anonymous": false,
      "inputs": [
        {
          "indexed": true,
          "internalType": "address",
          "name": "to",
          "type": "address"
        },
        {
          "indexed": false,
          "internalType": "uint256",
          "name": "amount",
          "type": "uint256"
        }
      ],
      "name": "EthWithdrawn",
      "type": "event"
    },
    {
      "anonymous": false,
      "inputs": [
        {
          "indexed": true,
          "internalType": "address",
          "name": "minter",
          "type": "address"
        },
        {
          "indexed": false,
          "internalType": "uint256",
          "name": "allowance",
          "type": "uint256"
        }
      ],
      "name": "MinterAllowanceUpdated",
      "type": "event"
    },
    {
      "anonymous": false,
      "inputs": [
        {
          "indexed": true,
          "internalType": "address",
          "name": "previousOwner",
          "type": "address"
        },
        {
          "indexed": true,
          "internalType": "address",
          "name": "newOwner",
          "type": "address"
        }
      ],
      "name": "OwnershipTransferred",
      "type": "event"
    },
    {
      "anonymous": false,
      "inputs": [
        {
          "indexed": false,
          "internalType": "uint256",
          "name": "priceWei",
          "type": "uint256"
        }
      ],
      "name": "PriceUpdated",
      "type": "event"
    },
    {
      "anonymous": false,
      "inputs": [
        {
          "indexed": true,
          "internalType": "address",
          "name": "minter",
          "type": "address"
        },
        {
          "indexed": true,
          "internalType": "address",
          "name": "to",
          "type": "address"
        },
        {
          "indexed": false,
          "internalType": "uint256",
          "name": "amount",
          "type": "uint256"
        }
      ],
      "name": "TokensMinted",
      "type": "event"
    },
    {
      "anonymous": false,
      "inputs": [
        {
          "indexed": true,
          "internalType": "address",
          "name": "payer",
          "type": "address"
        },
        {
          "indexed": true,
          "internalType": "address",
          "name": "to",
          "type": "address"
        },
        {
          "indexed": false,
          "internalType": "uint256",
          "name": "amount",
          "type": "uint256"
        },
        {
          "indexed": false,
          "internalType": "uint256",
          "name": "value",
          "type": "uint256"
        }
      ],
      "name": "TokensPurchased",
      "type": "event"
    },
    {
      "anonymous": false,
      "inputs": [
        {
          "indexed": true,
          "internalType": "address",
          "name": "from",
          "type": "address"
        },
        {
          "indexed": true,
          "internalType": "address",
          "name": "to",
          "type": "address"
        },
        {
          "indexed": false,
          "internalType": "uint256",
          "name": "value",
          "type": "uint256"
        }
      ],
      "name": "Transfer",
      "type": "event"
    },
    {
      "inputs": [
        {
          "internalType": "address",
          "name": "owner",
          "type": "address"
        },
        {
          "internalType": "address",
          "name": "spender",
          "type": "address"
        }
      ],
      "name": "allowance",
      "outputs": [
        {
          "internalType": "uint256",
          "name": "",
          "type": "uint256"
        }
      ],
      "stateMutability": "view",
      "type": "function"
    },
    {
      "inputs": [
        {
          "internalType": "address",
          "name": "spender",
          "type": "address"
        },
        {
          "internalType": "uint256",
          "name": "value",
          "type": "uint256"
        }
      ],
      "name": "approve",
      "outputs": [
        {
          "internalType": "bool",
          "name": "",
          "type": "bool"
        }
      ],
      "stateMutability": "nonpayable",
      "type": "function"
    },
    {
      "inputs": [
        {
          "internalType": "address",
          "name": "account",
          "type": "address"
        }
      ],
      "name": "balanceOf",
      "outputs": [
        {
          "internalType": "uint256",
          "name": "",
          "type": "uint256"
        }
      ],
      "stateMutability": "view",
      "type": "function"
    },
    {
      "inputs": [
        {
          "internalType": "address",
          "name": "to",
          "type": "address"
        },
        {
          "internalType": "uint256",
          "name": "amount",
          "type": "uint256"
        }
      ],
      "name": "buy",
      "outputs": [],
      "stateMutability": "payable",
      "type": "function"
    },
    {
      "inputs": [],
      "name": "decimals",
      "outputs": [
        {
          "internalType": "uint8",
          "name": "",
          "type": "uint8"
        }
      ],
      "stateMutability": "view",
      "type": "function"
    },
    {
      "inputs": [
        {
          "internalType": "address",
          "name": "to",
          "type": "address"
        },
        {
          "internalType": "uint256",
          "name": "amount",
          "type": "uint256"
        }
      ],
      "name": "mintTo",
      "outputs": [],
      "stateMutability": "nonpayable",
      "type": "function"
    },
    {
      "inputs": [
        {
          "internalType": "address",
          "name": "",
          "type": "address"
        }
      ],
      "name": "minterAllowance",
      "outputs": [
        {
          "internalType": "uint256",
          "name": "",
          "type": "uint256"
        }
      ],
      "stateMutability": "view",
      "type": "function"
    },
    {
      "inputs": [],
      "name": "name",
      "outputs": [
        {
          "internalType": "string",
          "name": "",
          "type": "string"
        }
      ],
      "stateMutability": "view",
      "type": "function"
    },
    {
      "inputs": [],
      "name": "owner",
      "outputs": [
        {
          "internalType": "address",
          "name": "",
          "type": "address"
        }
      ],
      "stateMutability": "view",
      "type": "function"
    },
    {
      "inputs": [],
      "name": "pricePerTokenWei",
      "outputs": [
        {
          "internalType": "uint256",
          "name": "",
          "type": "uint256"
        }
      ],
      "stateMutability": "view",
      "type": "function"
    },
    {
      "inputs": [],
      "name": "renounceOwnership",
      "outputs": [],
      "stateMutability": "nonpayable",
      "type": "function"
    },
    {
      "inputs": [
        {
          "internalType": "address",
          "name": "minter",
          "type": "address"
        },
        {
          "internalType": "uint256",
          "name": "allowance",
          "type": "uint256"
        }
      ],
      "name": "setMinterAllowance",
      "outputs": [],
      "stateMutability": "nonpayable",
      "type": "function"
    },
    {
      "inputs": [
        {
          "internalType": "uint256",
          "name": "newPrice",
          "type": "uint256"
        }
      ],
      "name": "setPricePerTokenWei",
      "outputs": [],
      "stateMutability": "nonpayable",
      "type": "function"
    },
    {
      "inputs": [],
      "name": "symbol",
      "outputs": [
        {
          "internalType": "string",
          "name": "",
          "type": "string"
        }
      ],
      "stateMutability": "view",
      "type": "function"
    },
    {
      "inputs": [],
      "name": "totalSupply",
      "outputs": [
        {
          "internalType": "uint256",
          "name": "",
          "type": "uint256"
        }
      ],
      "stateMutability": "view",
      "type": "function"
    },
    {
      "inputs": [
        {
          "internalType": "address",
          "name": "to",
          "type": "address"
        },
        {
          "internalType": "uint256",
          "name": "value",
          "type": "uint256"
        }
      ],
      "name": "transfer",
      "outputs": [
        {
          "internalType": "bool",
          "name": "",
          "type": "bool"
        }
      ],
      "stateMutability": "nonpayable",
      "type": "function"
    },
    {
      "inputs": [
        {
          "internalType": "address",
          "name": "from",
          "type": "address"
        },
        {
          "internalType": "address",
          "name": "to",
          "type": "address"
        },
        {
          "internalType": "uint256",
          "name": "value",
          "type": "uint256"
        }
      ],
      "name": "transferFrom",
      "outputs": [
        {
          "internalType": "bool",
          "name": "",
          "type": "bool"
        }
      ],
      "stateMutability": "nonpayable",
      "type": "function"
    },
    {
      "inputs": [
        {
          "internalType": "address",
          "name": "newOwner",
          "type": "address"
        }
      ],
      "name": "transferOwnership",
      "outputs": [],
      "stateMutability": "nonpayable",
      "type": "function"
    },
    {
      "inputs": [
        {
          "internalType": "address payable",
          "name": "to",
          "type": "address"
        },
        {
          "internalType": "uint256",
          "name": "amount",
          "type": "uint256"
        }
      ],
      "name": "withdrawETH",
      "outputs": [],
      "stateMutability": "nonpayable",
      "type": "function"
    },
    {
      "stateMutability": "payable",
      "type": "receive"
    }
  ],
  "bytecode": "0x608060405234801561000f575f5ffd5b506040516111e03803806111e083398101604081905261002e9161017f565b808383600361003d8382610288565b50600461004a8282610288565b5050506001600160a01b03811661007a57604051631e4fbdf760e01b81525f600482015260240160405180910390fd5b61008381610091565b50505f600655506103429050565b600580546001600160a01b038381166001600160a01b0319831681179093556040519116919082907f8be0079c531659141344cd1fd0a4f28419497f9722a3daafe3b4186f6b6457e0905f90a35050565b634e487b7160e01b5f52604160045260245ffd5b5f82601f830112610105575f5ffd5b81516001600160401b0381111561011e5761011e6100e2565b604051601f8201601f19908116603f011681016001600160401b038111828210171561014c5761014c6100e2565b604052818152838201602001851015610163575f5ffd5b8160208501602083015e5f918101602001919091529392505050565b5f5f5f60608486031215610191575f5ffd5b83516001600160401b038111156101a6575f5ffd5b6101b2868287016100f6565b602086015190945090506001600160401b038111156101cf575f5ffd5b6101db868287016100f6565b604086015190935090506001600160a01b03811681146101f9575f5ffd5b809150509250925092565b600181811c9082168061021857607f821691505b60208210810361023657634e487b7160e01b5f52602260045260245ffd5b50919050565b601f82111561028357805f5260205f20601f840160051c810160208510156102615750805b601f840160051c820191505b81811015610280575f815560010161026d565b50505b505050565b81516001600160401b038111156102a1576102a16100e2565b6102b5816102af8454610204565b8461023c565b6020601f8211600181146102e7575f83156102d05750848201515b5f19600385901b1c1916600184901b178455610280565b5f84815260208120601f198516915b8281101561031657878501518255602094850194600190920191016102f6565b508482101561033357868401515f19600387901b60f8161c191681555b50505050600190811b01905550565b610e918061034f5f395ff3fe608060405260043610610113575f3560e01c8063715018a61161009d578063c5c0db6211610062578063c5c0db62146102fb578063cce7ec131461031a578063cd7427931461032d578063dd62ed3e14610342578063f2fde38b14610386575f5ffd5b8063715018a6146102625780638a6db9c3146102765780638da5cb5b146102a157806395d89b41146102c8578063a9059cbb146102dc575f5ffd5b806323b872dd116100e357806323b872dd146101b6578063313ce567146101d5578063449a52f8146101f05780634782f7791461020f57806370a082311461022e575f5ffd5b806306fdde031461011e578063095ea7b31461014857806318160ddd146101775780632133ce0514610195575f5ffd5b3661011a57005b5f5ffd5b348015610129575f5ffd5b506101326103a5565b60405161013f9190610ca4565b60405180910390f35b348015610153575f5ffd5b50610167610162366004610ced565b610435565b604051901515815260200161013f565b348015610182575f5ffd5b506002545b60405190815260200161013f565b3480156101a0575f5ffd5b506101b46101af366004610d17565b61044e565b005b3480156101c1575f5ffd5b506101676101d0366004610d2e565b610491565b3480156101e0575f5ffd5b506040516012815260200161013f565b3480156101fb575f5ffd5b506101b461020a366004610ced565b6104b4565b34801561021a575f5ffd5b506101b4610229366004610ced565b61060e565b348015610239575f5ffd5b50610187610248366004610d6c565b6001600160a01b03165f9081526020819052604090205490565b34801561026d575f5ffd5b506101b4610754565b348015610281575f5ffd5b50610187610290366004610d6c565b60076020525f908152604090205481565b3480156102ac575f5ffd5b506005546040516001600160a01b03909116815260200161013f565b3480156102d3575f5ffd5b50610132610767565b3480156102e7575f5ffd5b506101676102f6366004610ced565b610776565b348015610306575f5ffd5b506101b4610315366004610ced565b610783565b6101b4610328366004610ced565b6107e3565b348015610338575f5ffd5b5061018760065481565b34801561034d575f5ffd5b5061018761035c366004610d8e565b6001600160a01b039182165f90815260016020908152604080832093909416825291909152205490565b348015610391575f5ffd5b506101b46103a0366004610d6c565b6108db565b6060600380546103b490610dc5565b80601f01602080910402602001604051908101604052809291908181526020018280546103e090610dc5565b801561042b5780601f106104025761010080835404028352916020019161042b565b820191905f5260205f20905b81548152906001019060200180831161040e57829003601f168201915b5050505050905090565b5f33610442818585610918565b60019150505b92915050565b61045661092a565b60068190556040518181527f66cbca4f3c64fecf1dcb9ce094abcf7f68c3450a1d4e3a8e917dd621edb4ebe09060200160405180910390a150565b5f3361049e858285610957565b6104a98585856109d3565b506001949350505050565b6001600160a01b0382166104e35760405162461bcd60e51b81526004016104da90610dfd565b60405180910390fd5b5f811161051d5760405162461bcd60e51b81526020600482015260086024820152670616d6f756e743e360c41b60448201526064016104da565b335f90815260076020526040902054806105665760405162461bcd60e51b815260206004820152600a6024820152693737ba1036b4b73a32b960b11b60448201526064016104da565b5f1981146105be57818110156105aa5760405162461bcd60e51b8152602060048201526009602482015268616c6c6f77616e636560b81b60448201526064016104da565b335f90815260076020526040902082820390555b6105c88383610a30565b6040518281526001600160a01b0384169033907fbf67ec129007be07f346d9d2933215293a6612ce7ff17d6b479a5a5cae72890c906020015b60405180910390a3505050565b61061661092a565b6001600160a01b03821661063c5760405162461bcd60e51b81526004016104da90610dfd565b4781111561067b5760405162461bcd60e51b815260206004820152600c60248201526b1a5b9cdd59999a58da595b9d60a21b60448201526064016104da565b5f826001600160a01b0316826040515f6040518083038185875af1925050503d805f81146106c4576040519150601f19603f3d011682016040523d82523d5f602084013e6106c9565b606091505b505090508061070c5760405162461bcd60e51b815260206004820152600f60248201526e1dda5d1a191c985dc819985a5b1959608a1b60448201526064016104da565b826001600160a01b03167f8455ae6be5d92f1df1c3c1484388e247a36c7e60d72055ae216dbc258f257d4b8360405161074791815260200190565b60405180910390a2505050565b61075c61092a565b6107655f610a68565b565b6060600480546103b490610dc5565b5f336104428185856109d3565b61078b61092a565b6001600160a01b0382165f8181526007602052604090819020839055517f1be5dc01757e457cf27e868cbbd77e43f6244b8e98ae9c75772cfb51c5ce9ccd906107d79084815260200190565b60405180910390a25050565b6001600160a01b0382166108095760405162461bcd60e51b81526004016104da90610dfd565b5f81116108435760405162461bcd60e51b81526020600482015260086024820152670616d6f756e743e360c41b60448201526064016104da565b5f816006546108529190610e31565b905080341461088f5760405162461bcd60e51b81526020600482015260096024820152680eee4dedcce408aa8960bb1b60448201526064016104da565b6108998383610a30565b604080518381523460208201526001600160a01b0385169133917f6faf93231a456e552dbc9961f58d9713ee4f2e69d15f1975b050ef0911053a7b9101610601565b6108e361092a565b6001600160a01b03811661090c57604051631e4fbdf760e01b81525f60048201526024016104da565b61091581610a68565b50565b6109258383836001610ab9565b505050565b6005546001600160a01b031633146107655760405163118cdaa760e01b81523360048201526024016104da565b6001600160a01b038381165f908152600160209081526040808320938616835292905220545f198110156109cd57818110156109bf57604051637dc7a0d960e11b81526001600160a01b038416600482015260248101829052604481018390526064016104da565b6109cd84848484035f610ab9565b50505050565b6001600160a01b0383166109fc57604051634b637e8f60e11b81525f60048201526024016104da565b6001600160a01b038216610a255760405163ec442f0560e01b81525f60048201526024016104da565b610925838383610b8b565b6001600160a01b038216610a595760405163ec442f0560e01b81525f60048201526024016104da565b610a645f8383610b8b565b5050565b600580546001600160a01b038381166001600160a01b0319831681179093556040519116919082907f8be0079c531659141344cd1fd0a4f28419497f9722a3daafe3b4186f6b6457e0905f90a35050565b6001600160a01b038416610ae25760405163e602df0560e01b81525f60048201526024016104da565b6001600160a01b038316610b0b57604051634a1406b160e11b81525f60048201526024016104da565b6001600160a01b038085165f90815260016020908152604080832093871683529290522082905580156109cd57826001600160a01b0316846001600160a01b03167f8c5be1e5ebec7d5bd14f71427d1e84f3dd0314c0f7b2291e5b200ac8c7c3b92584604051610b7d91815260200190565b60405180910390a350505050565b6001600160a01b038316610bb5578060025f828254610baa9190610e48565b90915550610c259050565b6001600160a01b0383165f9081526020819052604090205481811015610c075760405163391434e360e21b81526001600160a01b038516600482015260248101829052604481018390526064016104da565b6001600160a01b0384165f9081526020819052604090209082900390555b6001600160a01b038216610c4157600280548290039055610c5f565b6001600160a01b0382165f9081526020819052604090208054820190555b816001600160a01b0316836001600160a01b03167fddf252ad1be2c89b69c2b068fc378daa952ba7f163c4a11628f55a4df523b3ef8360405161060191815260200190565b602081525f82518060208401528060208501604085015e5f604082850101526040601f19601f83011684010191505092915050565b6001600160a01b0381168114610915575f5ffd5b5f5f60408385031215610cfe575f5ffd5b8235610d0981610cd9565b946020939093013593505050565b5f60208284031215610d27575f5ffd5b5035919050565b5f5f5f60608486031215610d40575f5ffd5b8335610d4b81610cd9565b92506020840135610d5b81610cd9565b929592945050506040919091013590565b5f60208284031215610d7c575f5ffd5b8135610d8781610cd9565b9392505050565b5f5f60408385031215610d9f575f5ffd5b8235610daa81610cd9565b91506020830135610dba81610cd9565b809150509250929050565b600181811c90821680610dd957607f821691505b602082108103610df757634e487b7160e01b5f52602260045260245ffd5b50919050565b60208082526006908201526562616420746f60d01b604082015260600190565b634e487b7160e01b5f52601160045260245ffd5b808202811582820484141761044857610448610e1d565b8082018082111561044857610448610e1d56fea26469706673582212200948de0cd4ee26ca0d4a16c6dfb0be5658ac7ded7f78b9843ef51c57ebcb4e3164736f6c634300081c0033",
  "linkReferences": {},
  "deployedLinkReferences": {},
  "immutableReferences": {},
  "inputSourceName": "project/contracts/RewardToken.sol",
  "buildInfoId": "solc-0_8_28-bfe6d80943fe52bfef3521c46872edcb72d6ada4"
}