{
  "_format": "hh3-artifact-1",
  "contractName": "SmartAccount",
  "sourceName": "contracts/SmartAccount.sol",
  "abi": [
    {
      "inputs": [
        {
          "internalType": "address",
          "name": "_owner",
          "type": "address"
        },
        {
          "internalType": "address",
          "name": "_entryPoint",
          "type": "address"
        }
      ],
      "stateMutability": "nonpayable",
      "type": "constructor"
    },
    {
      "inputs": [],
      "name": "depositToEntryPoint",
      "outputs": [],
      "stateMutability": "payable",
      "type": "function"
    },
    {
      "inputs": [],
      "name": "entryPoint",
      "outputs": [
        {
          "internalType": "contract IEntryPoint",
          "name": "",
          "type": "address"
        }
      ],
      "stateMutability": "view",
      "type": "function"
    },
    {
      "inputs": [
        {
          "internalType": "address",
          "name": "target",
          "type": "address"
        },
        {
          "internalType": "uint256",
          "name": "value",
          "type": "uint256"
        },
        {
          "internalType": "bytes",
          "name": "data",
          "type": "bytes"
        }
      ],
      "name": "execute",
      "outputs": [
        {
          "internalType": "bytes",
          "name": "",
          "type": "bytes"
        }
      ],
      "stateMutability": "nonpayable",
      "type": "function"
    },
    {
      "inputs": [],
      "name": "owner",
      "outputs": [
        {
          "internalType": "address",
          "name": "",
          "type": "address"
        }
      ],
      "stateMutability": "view",
      "type": "function"
    },
    {
      "stateMutability": "payable",
      "type": "receive"
    }
  ],
  "bytecode": "0x6080604052348015600e575f5ffd5b506040516103e33803806103e3833981016040819052602b916074565b5f80546001600160a01b039384166001600160a01b0319918216179091556001805492909316911617905560a0565b80516001600160a01b0381168114606f575f5ffd5b919050565b5f5f604083850312156084575f5ffd5b608b83605a565b9150609760208401605a565b90509250929050565b610336806100ad5f395ff3fe608060405260043610610041575f3560e01c80631b3ba1011461004c5780638da5cb5b14610056578063b0d691fe14610091578063b61d27f6146100b0575f5ffd5b3661004857005b5f5ffd5b6100546100dc565b005b348015610061575f5ffd5b505f54610074906001600160a01b031681565b6040516001600160a01b0390911681526020015b60405180910390f35b34801561009c575f5ffd5b50600154610074906001600160a01b031681565b3480156100bb575f5ffd5b506100cf6100ca36600461022c565b610139565b60405161008891906102bc565b60015460405163b760faf960e01b81523060048201526001600160a01b039091169063b760faf99034906024015f604051808303818588803b158015610120575f5ffd5b505af1158015610132573d5f5f3e3d5ffd5b5050505050565b5f546060906001600160a01b031633146101865760405162461bcd60e51b81526020600482015260096024820152682737ba1037bbb732b960b91b60448201526064015b60405180910390fd5b5f5f866001600160a01b03168686866040516101a39291906102f1565b5f6040518083038185875af1925050503d805f81146101dd576040519150601f19603f3d011682016040523d82523d5f602084013e6101e2565b606091505b5091509150816102225760405162461bcd60e51b815260206004820152600b60248201526a18d85b1b0819985a5b195960aa1b604482015260640161017d565b9695505050505050565b5f5f5f5f6060858703121561023f575f5ffd5b84356001600160a01b0381168114610255575f5ffd5b935060208501359250604085013567ffffffffffffffff811115610277575f5ffd5b8501601f81018713610287575f5ffd5b803567ffffffffffffffff81111561029d575f5ffd5b8760208284010111156102ae575f5ffd5b949793965060200194505050565b602081525f82518060208401528060208501604085015e5f604082850101526040601f19601f83011684010191505092915050565b818382375f910190815291905056fea264697066735822122064854c54245ff86d19b15ef5738d0368173b2c7baffa2dfe3ffb1302085e924364736f6c634300081c0033",
  "linkReferences": {},
  "deployedLinkReferences": {},
  "immutableReferences": {},
  "inputSourceName": "project/contracts/SmartAccount.sol",
  "buildInfoId": "solc-0_8_28-74223596e3607ff82dd5899f88783afc5b95f49c"
}